{"contractName":"CreateAndAddModules","abi":[{"constant":false,"inputs":[{"internalType":"contract Module","name":"module","type":"address"}],"name":"enableModule","outputs":[],"payable":false,"stateMutability":"nonpayable","type":"function"},{"constant":false,"inputs":[{"internalType":"address","name":"proxyFactory","type":"address"},{"internalType":"bytes","name":"data","type":"bytes"}],"name":"createAndAddModules","outputs":[],"payable":false,"stateMutability":"nonpayable","type":"function"}],"bytecode":"0x608060405234801561001057600080fd5b5061029f806100206000396000f3fe608060405234801561001057600080fd5b50600436106100365760003560e01c806360df7f581461003b578063610b592514610116575b600080fd5b6101146004803603604081101561005157600080fd5b81019080803573ffffffffffffffffffffffffffffffffffffffff1690602001909291908035906020019064010000000081111561008e57600080fd5b8201836020820111156100a057600080fd5b803590602001918460018302840111640100000000831117156100c257600080fd5b91908080601f016020809104026020016040519081016040528093929190818152602001838380828437600081840152601f19601f82011690508083019250505050505050919291929050505061015a565b005b6101586004803603602081101561012c57600080fd5b81019080803573ffffffffffffffffffffffffffffffffffffffff169060200190929190505050610265565b005b600081519050600080600090505b8281101561025e5780840160200151818501604001604051600060208285858c5af4141561019557600080fd5b73ffffffffffffffffffffffffffffffffffffffff8151169450602080601f85010402602001840193505050503073ffffffffffffffffffffffffffffffffffffffff1663610b5925836040518263ffffffff1660e01b8152600401808273ffffffffffffffffffffffffffffffffffffffff1673ffffffffffffffffffffffffffffffffffffffff168152602001915050600060405180830381600087803b15801561024157600080fd5b505af1158015610255573d6000803e3d6000fd5b50505050610168565b5050505050565b600080fdfea265627a7a723158204317cd6b2cf358ab14f62ffbbb279b8628e2fd77e901706b665b6b481484f84d64736f6c63430005100032","source":"pragma solidity >=0.5.0 <0.7.0;\nimport \"../base/Module.sol\";\n\n\n/// @title Create and Add Modules - Allows to create and add multiple module in one transaction.\n/// @author Stefan George - <stefan@gnosis.pm>\n/// @author Richard Meissner - <richard@gnosis.pm>\ncontract CreateAndAddModules {\n\n    /// @dev Function required to compile contract. Gnosis Safe function is called instead.\n    /// @param module Not used.\n    function enableModule(Module module)\n        public\n    {\n        revert();\n    }\n\n    /// @dev Allows to create and add multiple module in one transaction.\n    /// @param proxyFactory Module proxy factory contract.\n    /// @param data Modules constructor payload. This is the data for each proxy factory call concatinated. (e.g. <byte_array_len_1><byte_array_data_1><byte_array_len_2><byte_array_data_2>)\n    function createAndAddModules(address proxyFactory, bytes memory data)\n        public\n    {\n        uint256 length = data.length;\n        Module module;\n        uint256 i = 0;\n        while (i < length) {\n            // solium-disable-next-line security/no-inline-assembly\n            assembly {\n                let createBytesLength := mload(add(0x20, add(data, i)))\n                let createBytes := add(0x40, add(data, i))\n\n                let output := mload(0x40)\n                if eq(delegatecall(gas, proxyFactory, createBytes, createBytesLength, output, 0x20), 0) { revert(0, 0) }\n                module := and(mload(output), 0xffffffffffffffffffffffffffffffffffffffff)\n\n                // Data is always padded to 32 bytes\n                i := add(i, add(0x20, mul(div(add(createBytesLength, 0x1f), 0x20), 0x20)))\n            }\n            this.enableModule(module);\n        }\n    }\n}\n","compiler":{"name":"solc","version":"0.5.16+commit.9c3226ce.Emscripten.clang"},"schemaVersion":"3.1.0","updatedAt":"2020-04-20T14:11:17.876Z","devdoc":{"author":"Stefan George - <stefan@gnosis.pm>Richard Meissner - <richard@gnosis.pm>","methods":{"createAndAddModules(address,bytes)":{"details":"Allows to create and add multiple module in one transaction.","params":{"data":"Modules constructor payload. This is the data for each proxy factory call concatinated. (e.g. <byte_array_len_1><byte_array_data_1><byte_array_len_2><byte_array_data_2>)","proxyFactory":"Module proxy factory contract."}},"enableModule(address)":{"details":"Function required to compile contract. Gnosis Safe function is called instead.","params":{"module":"Not used."}}},"title":"Create and Add Modules - Allows to create and add multiple module in one transaction."},"userdoc":{"methods":{}}}