{"contractName":"DefaultCallbackHandler","abi":[{"constant":true,"inputs":[],"name":"NAME","outputs":[{"internalType":"string","name":"","type":"string"}],"payable":false,"stateMutability":"view","type":"function"},{"constant":true,"inputs":[],"name":"VERSION","outputs":[{"internalType":"string","name":"","type":"string"}],"payable":false,"stateMutability":"view","type":"function"},{"constant":false,"inputs":[{"internalType":"address","name":"","type":"address"},{"internalType":"address","name":"","type":"address"},{"internalType":"uint256","name":"","type":"uint256"},{"internalType":"uint256","name":"","type":"uint256"},{"internalType":"bytes","name":"","type":"bytes"}],"name":"onERC1155Received","outputs":[{"internalType":"bytes4","name":"","type":"bytes4"}],"payable":false,"stateMutability":"nonpayable","type":"function"},{"constant":false,"inputs":[{"internalType":"address","name":"","type":"address"},{"internalType":"address","name":"","type":"address"},{"internalType":"uint256[]","name":"","type":"uint256[]"},{"internalType":"uint256[]","name":"","type":"uint256[]"},{"internalType":"bytes","name":"","type":"bytes"}],"name":"onERC1155BatchReceived","outputs":[{"internalType":"bytes4","name":"","type":"bytes4"}],"payable":false,"stateMutability":"nonpayable","type":"function"},{"constant":false,"inputs":[{"internalType":"address","name":"","type":"address"},{"internalType":"address","name":"","type":"address"},{"internalType":"uint256","name":"","type":"uint256"},{"internalType":"bytes","name":"","type":"bytes"}],"name":"onERC721Received","outputs":[{"internalType":"bytes4","name":"","type":"bytes4"}],"payable":false,"stateMutability":"nonpayable","type":"function"},{"constant":false,"inputs":[{"internalType":"address","name":"","type":"address"},{"internalType":"address","name":"","type":"address"},{"internalType":"address","name":"","type":"address"},{"internalType":"uint256","name":"","type":"uint256"},{"internalType":"bytes","name":"","type":"bytes"},{"internalType":"bytes","name":"","type":"bytes"}],"name":"tokensReceived","outputs":[],"payable":false,"stateMutability":"nonpayable","type":"function"}],"bytecode":"0x608060405234801561001057600080fd5b50610781806100206000396000f3fe608060405234801561001057600080fd5b50600436106100615760003560e01c806223de2914610066578063150b7a021461019e578063a3f4df7e146102b3578063bc197c8114610336578063f23a6e61146104eb578063ffa1ad741461060a575b600080fd5b61019c600480360360c081101561007c57600080fd5b81019080803573ffffffffffffffffffffffffffffffffffffffff169060200190929190803573ffffffffffffffffffffffffffffffffffffffff169060200190929190803573ffffffffffffffffffffffffffffffffffffffff169060200190929190803590602001909291908035906020019064010000000081111561010357600080fd5b82018360208201111561011557600080fd5b8035906020019184600183028401116401000000008311171561013757600080fd5b90919293919293908035906020019064010000000081111561015857600080fd5b82018360208201111561016a57600080fd5b8035906020019184600183028401116401000000008311171561018c57600080fd5b909192939192939050505061068d565b005b61025f600480360360808110156101b457600080fd5b81019080803573ffffffffffffffffffffffffffffffffffffffff169060200190929190803573ffffffffffffffffffffffffffffffffffffffff169060200190929190803590602001909291908035906020019064010000000081111561021b57600080fd5b82018360208201111561022d57600080fd5b8035906020019184600183028401116401000000008311171561024f57600080fd5b9091929391929390505050610697565b60405180827bffffffffffffffffffffffffffffffffffffffffffffffffffffffff19167bffffffffffffffffffffffffffffffffffffffffffffffffffffffff1916815260200191505060405180910390f35b6102bb6106ac565b6040518080602001828103825283818151815260200191508051906020019080838360005b838110156102fb5780820151818401526020810190506102e0565b50505050905090810190601f1680156103285780820380516001836020036101000a031916815260200191505b509250505060405180910390f35b610497600480360360a081101561034c57600080fd5b81019080803573ffffffffffffffffffffffffffffffffffffffff169060200190929190803573ffffffffffffffffffffffffffffffffffffffff169060200190929190803590602001906401000000008111156103a957600080fd5b8201836020820111156103bb57600080fd5b803590602001918460208302840111640100000000831117156103dd57600080fd5b9091929391929390803590602001906401000000008111156103fe57600080fd5b82018360208201111561041057600080fd5b8035906020019184602083028401116401000000008311171561043257600080fd5b90919293919293908035906020019064010000000081111561045357600080fd5b82018360208201111561046557600080fd5b8035906020019184600183028401116401000000008311171561048757600080fd5b90919293919293905050506106e5565b60405180827bffffffffffffffffffffffffffffffffffffffffffffffffffffffff19167bffffffffffffffffffffffffffffffffffffffffffffffffffffffff1916815260200191505060405180910390f35b6105b6600480360360a081101561050157600080fd5b81019080803573ffffffffffffffffffffffffffffffffffffffff169060200190929190803573ffffffffffffffffffffffffffffffffffffffff16906020019092919080359060200190929190803590602001909291908035906020019064010000000081111561057257600080fd5b82018360208201111561058457600080fd5b803590602001918460018302840111640100000000831117156105a657600080fd5b90919293919293905050506106fd565b60405180827bffffffffffffffffffffffffffffffffffffffffffffffffffffffff19167bffffffffffffffffffffffffffffffffffffffffffffffffffffffff1916815260200191505060405180910390f35b610612610713565b6040518080602001828103825283818151815260200191508051906020019080838360005b83811015610652578082015181840152602081019050610637565b50505050905090810190601f16801561067f5780820380516001836020036101000a031916815260200191505b509250505060405180910390f35b5050505050505050565b600063150b7a0260e01b905095945050505050565b6040518060400160405280601881526020017f44656661756c742043616c6c6261636b2048616e646c6572000000000000000081525081565b600063bc197c8160e01b905098975050505050505050565b600063f23a6e6160e01b90509695505050505050565b6040518060400160405280600581526020017f312e302e300000000000000000000000000000000000000000000000000000008152508156fea265627a7a72315820b1ff90a9615073f11495d90d0f7d8944413bf5e11da47bcf4b671a97074199db64736f6c63430005100032","source":"pragma solidity >=0.5.0 <0.7.0;\n\nimport \"../interfaces/ERC1155TokenReceiver.sol\";\nimport \"../interfaces/ERC721TokenReceiver.sol\";\nimport \"../interfaces/ERC777TokensRecipient.sol\";\n\n/// @title Default Callback Handler - returns true for known token callbacks\n/// @author Richard Meissner - <richard@gnosis.pm>\ncontract DefaultCallbackHandler is ERC1155TokenReceiver, ERC777TokensRecipient, ERC721TokenReceiver {\n\n    string public constant NAME = \"Default Callback Handler\";\n    string public constant VERSION = \"1.0.0\";\n\n    function onERC1155Received(address, address, uint256, uint256, bytes calldata)\n        external\n        returns(bytes4)\n    {\n        return 0xf23a6e61;\n    }\n\n    function onERC1155BatchReceived(address, address, uint256[] calldata, uint256[] calldata, bytes calldata)\n        external\n        returns(bytes4)\n    {\n        return 0xbc197c81;\n    }\n\n    function onERC721Received(address, address, uint256, bytes calldata)\n        external\n        returns(bytes4)\n    {\n        return 0x150b7a02;\n    }\n\n    // solium-disable-next-line no-empty-blocks\n    function tokensReceived(address, address, address, uint256, bytes calldata, bytes calldata) external {\n        // We implement this for completeness, doesn't really have any value\n    }\n\n}","compiler":{"name":"solc","version":"0.5.16+commit.9c3226ce.Emscripten.clang"},"schemaVersion":"3.1.0","updatedAt":"2020-04-20T14:11:17.834Z","devdoc":{"author":"Richard Meissner - <richard@gnosis.pm>","methods":{},"title":"Default Callback Handler - returns true for known token callbacks"},"userdoc":{"methods":{}}}